{
  "_format": "hh-sol-artifact-1",
  "contractName": "CapFund",
  "sourceName": "contracts/CapFund.sol",
  "abi": [
    {
      "anonymous": false,
      "inputs": [
        {
          "indexed": true,
          "internalType": "uint256",
          "name": "id",
          "type": "uint256"
        },
        {
          "indexed": true,
          "internalType": "address",
          "name": "owner",
          "type": "address"
        },
        {
          "indexed": false,
          "internalType": "uint256",
          "name": "fundingCap",
          "type": "uint256"
        },
        {
          "indexed": false,
          "internalType": "uint256",
          "name": "deadline",
          "type": "uint256"
        }
      ],
      "name": "CampaignCreated",
      "type": "event"
    },
    {
      "anonymous": false,
      "inputs": [
        {
          "indexed": true,
          "internalType": "uint256",
          "name": "id",
          "type": "uint256"
        },
        {
          "indexed": true,
          "internalType": "address",
          "name": "contributor",
          "type": "address"
        },
        {
          "indexed": false,
          "internalType": "uint256",
          "name": "amount",
          "type": "uint256"
        }
      ],
      "name": "ContributionMade",
      "type": "event"
    },
    {
      "anonymous": false,
      "inputs": [
        {
          "indexed": true,
          "internalType": "uint256",
          "name": "id",
          "type": "uint256"
        },
        {
          "indexed": true,
          "internalType": "address",
          "name": "owner",
          "type": "address"
        },
        {
          "indexed": false,
          "internalType": "uint256",
          "name": "amount",
          "type": "uint256"
        }
      ],
      "name": "FundsWithdrawn",
      "type": "event"
    },
    {
      "anonymous": false,
      "inputs": [
        {
          "indexed": true,
          "internalType": "uint256",
          "name": "campaignId",
          "type": "uint256"
        },
        {
          "indexed": true,
          "internalType": "address",
          "name": "contributor",
          "type": "address"
        },
        {
          "indexed": false,
          "internalType": "uint256",
          "name": "amount",
          "type": "uint256"
        }
      ],
      "name": "InterestClaimed",
      "type": "event"
    },
    {
      "anonymous": false,
      "inputs": [
        {
          "indexed": true,
          "internalType": "uint256",
          "name": "campaignId",
          "type": "uint256"
        },
        {
          "indexed": true,
          "internalType": "address",
          "name": "funder",
          "type": "address"
        },
        {
          "indexed": false,
          "internalType": "uint256",
          "name": "amount",
          "type": "uint256"
        }
      ],
      "name": "InterestPoolFunded",
      "type": "event"
    },
    {
      "anonymous": false,
      "inputs": [
        {
          "indexed": true,
          "internalType": "uint256",
          "name": "campaignId",
          "type": "uint256"
        },
        {
          "indexed": true,
          "internalType": "uint256",
          "name": "proposalId",
          "type": "uint256"
        },
        {
          "indexed": false,
          "internalType": "string",
          "name": "description",
          "type": "string"
        },
        {
          "indexed": false,
          "internalType": "enum CapFund.ProposalType",
          "name": "pType",
          "type": "uint8"
        },
        {
          "indexed": false,
          "internalType": "uint256",
          "name": "votingDeadline",
          "type": "uint256"
        }
      ],
      "name": "ProposalCreated",
      "type": "event"
    },
    {
      "anonymous": false,
      "inputs": [
        {
          "indexed": true,
          "internalType": "uint256",
          "name": "campaignId",
          "type": "uint256"
        },
        {
          "indexed": true,
          "internalType": "uint256",
          "name": "proposalId",
          "type": "uint256"
        },
        {
          "indexed": false,
          "internalType": "bool",
          "name": "passed",
          "type": "bool"
        }
      ],
      "name": "ProposalExecuted",
      "type": "event"
    },
    {
      "anonymous": false,
      "inputs": [
        {
          "indexed": true,
          "internalType": "uint256",
          "name": "id",
          "type": "uint256"
        },
        {
          "indexed": true,
          "internalType": "address",
          "name": "contributor",
          "type": "address"
        },
        {
          "indexed": false,
          "internalType": "uint256",
          "name": "amount",
          "type": "uint256"
        }
      ],
      "name": "RefundIssued",
      "type": "event"
    },
    {
      "anonymous": false,
      "inputs": [
        {
          "indexed": true,
          "internalType": "uint256",
          "name": "campaignId",
          "type": "uint256"
        },
        {
          "indexed": true,
          "internalType": "uint256",
          "name": "proposalId",
          "type": "uint256"
        },
        {
          "indexed": true,
          "internalType": "address",
          "name": "voter",
          "type": "address"
        },
        {
          "indexed": false,
          "internalType": "bool",
          "name": "support",
          "type": "bool"
        },
        {
          "indexed": false,
          "internalType": "uint256",
          "name": "votingPower",
          "type": "uint256"
        }
      ],
      "name": "VoteCast",
      "type": "event"
    },
    {
      "inputs": [],
      "name": "INTEREST_RATE_BPS",
      "outputs": [
        {
          "internalType": "uint256",
          "name": "",
          "type": "uint256"
        }
      ],
      "stateMutability": "view",
      "type": "function"
    },
    {
      "inputs": [
        {
          "internalType": "uint256",
          "name": "_id",
          "type": "uint256"
        },
        {
          "internalType": "address",
          "name": "_contributor",
          "type": "address"
        }
      ],
      "name": "calculateInterest",
      "outputs": [
        {
          "internalType": "uint256",
          "name": "",
          "type": "uint256"
        }
      ],
      "stateMutability": "view",
      "type": "function"
    },
    {
      "inputs": [],
      "name": "campaignCount",
      "outputs": [
        {
          "internalType": "uint256",
          "name": "",
          "type": "uint256"
        }
      ],
      "stateMutability": "view",
      "type": "function"
    },
    {
      "inputs": [
        {
          "internalType": "uint256",
          "name": "",
          "type": "uint256"
        }
      ],
      "name": "campaigns",
      "outputs": [
        {
          "internalType": "uint256",
          "name": "id",
          "type": "uint256"
        },
        {
          "internalType": "address payable",
          "name": "owner",
          "type": "address"
        },
        {
          "internalType": "uint256",
          "name": "fundingCap",
          "type": "uint256"
        },
        {
          "internalType": "uint256",
          "name": "totalFunds",
          "type": "uint256"
        },
        {
          "internalType": "uint256",
          "name": "deadline",
          "type": "uint256"
        },
        {
          "internalType": "uint256",
          "name": "interestPool",
          "type": "uint256"
        },
        {
          "internalType": "bool",
          "name": "withdrawn",
          "type": "bool"
        },
        {
          "internalType": "bool",
          "name": "cancelled",
          "type": "bool"
        },
        {
          "internalType": "bool",
          "name": "exists",
          "type": "bool"
        }
      ],
      "stateMutability": "view",
      "type": "function"
    },
    {
      "inputs": [
        {
          "internalType": "uint256",
          "name": "_id",
          "type": "uint256"
        }
      ],
      "name": "claimInterest",
      "outputs": [],
      "stateMutability": "nonpayable",
      "type": "function"
    },
    {
      "inputs": [
        {
          "internalType": "uint256",
          "name": "_id",
          "type": "uint256"
        }
      ],
      "name": "claimRefund",
      "outputs": [],
      "stateMutability": "nonpayable",
      "type": "function"
    },
    {
      "inputs": [
        {
          "internalType": "uint256",
          "name": "_id",
          "type": "uint256"
        }
      ],
      "name": "contribute",
      "outputs": [],
      "stateMutability": "payable",
      "type": "function"
    },
    {
      "inputs": [
        {
          "internalType": "uint256",
          "name": "",
          "type": "uint256"
        },
        {
          "internalType": "address",
          "name": "",
          "type": "address"
        }
      ],
      "name": "contributionTimestamps",
      "outputs": [
        {
          "internalType": "uint256",
          "name": "",
          "type": "uint256"
        }
      ],
      "stateMutability": "view",
      "type": "function"
    },
    {
      "inputs": [
        {
          "internalType": "uint256",
          "name": "",
          "type": "uint256"
        },
        {
          "internalType": "address",
          "name": "",
          "type": "address"
        }
      ],
      "name": "contributions",
      "outputs": [
        {
          "internalType": "uint256",
          "name": "",
          "type": "uint256"
        }
      ],
      "stateMutability": "view",
      "type": "function"
    },
    {
      "inputs": [
        {
          "internalType": "uint256",
          "name": "_fundingCap",
          "type": "uint256"
        },
        {
          "internalType": "uint256",
          "name": "_deadline",
          "type": "uint256"
        }
      ],
      "name": "createCampaign",
      "outputs": [
        {
          "internalType": "uint256",
          "name": "id",
          "type": "uint256"
        }
      ],
      "stateMutability": "nonpayable",
      "type": "function"
    },
    {
      "inputs": [
        {
          "internalType": "uint256",
          "name": "_id",
          "type": "uint256"
        },
        {
          "internalType": "string",
          "name": "_description",
          "type": "string"
        },
        {
          "internalType": "enum CapFund.ProposalType",
          "name": "_pType",
          "type": "uint8"
        },
        {
          "internalType": "uint256",
          "name": "_votingDuration",
          "type": "uint256"
        },
        {
          "internalType": "uint256",
          "name": "_newDeadline",
          "type": "uint256"
        }
      ],
      "name": "createProposal",
      "outputs": [
        {
          "internalType": "uint256",
          "name": "proposalId",
          "type": "uint256"
        }
      ],
      "stateMutability": "nonpayable",
      "type": "function"
    },
    {
      "inputs": [
        {
          "internalType": "uint256",
          "name": "_id",
          "type": "uint256"
        },
        {
          "internalType": "uint256",
          "name": "_proposalId",
          "type": "uint256"
        }
      ],
      "name": "executeProposal",
      "outputs": [],
      "stateMutability": "nonpayable",
      "type": "function"
    },
    {
      "inputs": [
        {
          "internalType": "uint256",
          "name": "_id",
          "type": "uint256"
        }
      ],
      "name": "fundInterestPool",
      "outputs": [],
      "stateMutability": "payable",
      "type": "function"
    },
    {
      "inputs": [
        {
          "internalType": "uint256",
          "name": "_id",
          "type": "uint256"
        }
      ],
      "name": "getCampaign",
      "outputs": [
        {
          "internalType": "address",
          "name": "owner",
          "type": "address"
        },
        {
          "internalType": "uint256",
          "name": "fundingCap",
          "type": "uint256"
        },
        {
          "internalType": "uint256",
          "name": "totalFunds",
          "type": "uint256"
        },
        {
          "internalType": "uint256",
          "name": "deadline",
          "type": "uint256"
        },
        {
          "internalType": "bool",
          "name": "withdrawn",
          "type": "bool"
        },
        {
          "internalType": "bool",
          "name": "cancelled",
          "type": "bool"
        },
        {
          "internalType": "uint256",
          "name": "interestPool",
          "type": "uint256"
        }
      ],
      "stateMutability": "view",
      "type": "function"
    },
    {
      "inputs": [
        {
          "internalType": "uint256",
          "name": "_id",
          "type": "uint256"
        },
        {
          "internalType": "address",
          "name": "_contributor",
          "type": "address"
        }
      ],
      "name": "getContribution",
      "outputs": [
        {
          "internalType": "uint256",
          "name": "",
          "type": "uint256"
        }
      ],
      "stateMutability": "view",
      "type": "function"
    },
    {
      "inputs": [
        {
          "internalType": "uint256",
          "name": "_id",
          "type": "uint256"
        },
        {
          "internalType": "uint256",
          "name": "_proposalId",
          "type": "uint256"
        }
      ],
      "name": "getProposal",
      "outputs": [
        {
          "internalType": "string",
          "name": "description",
          "type": "string"
        },
        {
          "internalType": "enum CapFund.ProposalType",
          "name": "pType",
          "type": "uint8"
        },
        {
          "internalType": "uint256",
          "name": "yesVotes",
          "type": "uint256"
        },
        {
          "internalType": "uint256",
          "name": "noVotes",
          "type": "uint256"
        },
        {
          "internalType": "uint256",
          "name": "votingDeadline",
          "type": "uint256"
        },
        {
          "internalType": "uint256",
          "name": "newDeadline",
          "type": "uint256"
        },
        {
          "internalType": "bool",
          "name": "executed",
          "type": "bool"
        },
        {
          "internalType": "bool",
          "name": "passed",
          "type": "bool"
        }
      ],
      "stateMutability": "view",
      "type": "function"
    },
    {
      "inputs": [
        {
          "internalType": "uint256",
          "name": "_id",
          "type": "uint256"
        }
      ],
      "name": "getProposalCount",
      "outputs": [
        {
          "internalType": "uint256",
          "name": "",
          "type": "uint256"
        }
      ],
      "stateMutability": "view",
      "type": "function"
    },
    {
      "inputs": [
        {
          "internalType": "uint256",
          "name": "",
          "type": "uint256"
        },
        {
          "internalType": "uint256",
          "name": "",
          "type": "uint256"
        },
        {
          "internalType": "address",
          "name": "",
          "type": "address"
        }
      ],
      "name": "hasVoted",
      "outputs": [
        {
          "internalType": "bool",
          "name": "",
          "type": "bool"
        }
      ],
      "stateMutability": "view",
      "type": "function"
    },
    {
      "inputs": [
        {
          "internalType": "uint256",
          "name": "",
          "type": "uint256"
        },
        {
          "internalType": "address",
          "name": "",
          "type": "address"
        }
      ],
      "name": "interestClaimed",
      "outputs": [
        {
          "internalType": "uint256",
          "name": "",
          "type": "uint256"
        }
      ],
      "stateMutability": "view",
      "type": "function"
    },
    {
      "inputs": [
        {
          "internalType": "uint256",
          "name": "_id",
          "type": "uint256"
        }
      ],
      "name": "isActive",
      "outputs": [
        {
          "internalType": "bool",
          "name": "",
          "type": "bool"
        }
      ],
      "stateMutability": "view",
      "type": "function"
    },
    {
      "inputs": [
        {
          "internalType": "uint256",
          "name": "",
          "type": "uint256"
        },
        {
          "internalType": "uint256",
          "name": "",
          "type": "uint256"
        }
      ],
      "name": "proposals",
      "outputs": [
        {
          "internalType": "uint256",
          "name": "id",
          "type": "uint256"
        },
        {
          "internalType": "string",
          "name": "description",
          "type": "string"
        },
        {
          "internalType": "enum CapFund.ProposalType",
          "name": "pType",
          "type": "uint8"
        },
        {
          "internalType": "uint256",
          "name": "yesVotes",
          "type": "uint256"
        },
        {
          "internalType": "uint256",
          "name": "noVotes",
          "type": "uint256"
        },
        {
          "internalType": "uint256",
          "name": "votingDeadline",
          "type": "uint256"
        },
        {
          "internalType": "uint256",
          "name": "newDeadline",
          "type": "uint256"
        },
        {
          "internalType": "bool",
          "name": "executed",
          "type": "bool"
        },
        {
          "internalType": "bool",
          "name": "passed",
          "type": "bool"
        }
      ],
      "stateMutability": "view",
      "type": "function"
    },
    {
      "inputs": [
        {
          "internalType": "uint256",
          "name": "_id",
          "type": "uint256"
        },
        {
          "internalType": "uint256",
          "name": "_proposalId",
          "type": "uint256"
        },
        {
          "internalType": "bool",
          "name": "_support",
          "type": "bool"
        }
      ],
      "name": "vote",
      "outputs": [],
      "stateMutability": "nonpayable",
      "type": "function"
    },
    {
      "inputs": [
        {
          "internalType": "uint256",
          "name": "_id",
          "type": "uint256"
        }
      ],
      "name": "withdraw",
      "outputs": [],
      "stateMutability": "nonpayable",
      "type": "function"
    }
  ],
  "bytecode": "0x608060405234801561001057600080fd5b50612900806100206000396000f3fe6080604052600436106101405760003560e01c80634ca8076a116100b6578063971b68281161006f578063971b6828146104d55780639bd344e5146104e8578063aba21009146104fe578063c1cbbca714610532578063c2cfee2714610545578063e081dbf91461057a57600080fd5b80634ca8076a146103dc5780635598f8cc146103fc5780635b7baf641461045f5780636a18ff7a1461047f5780637274e30d1461049f57806382afd23b146104b557600080fd5b80632e1a7d4d116101085780632e1a7d4d146102ec5780632eb375ea1461030c5780633d891f591461032c57806342032549146103645780634764a331146103845780634936c0f6146103bc57600080fd5b80630d39a1d314610145578063141961bc1461019b5780631ab7671214610264578063205de36f1461028657806322502268146102cc575b600080fd5b34801561015157600080fd5b50610186610160366004612330565b600660209081526000938452604080852082529284528284209052825290205460ff1681565b60405190151581526020015b60405180910390f35b3480156101a757600080fd5b506102126101b6366004612365565b600160208190526000918252604090912080549181015460028201546003830154600484015460058501546006909501546001600160a01b039094169492939192909160ff808216916101008104821691620100009091041689565b60408051998a526001600160a01b0390981660208a0152968801959095526060870193909352608086019190915260a0850152151560c0840152151560e0830152151561010082015261012001610192565b34801561027057600080fd5b5061028461027f36600461237e565b61059a565b005b34801561029257600080fd5b506102be6102a13660046123a0565b600360209081526000928352604080842090915290825290205481565b604051908152602001610192565b3480156102d857600080fd5b506102be6102e736600461237e565b6107dc565b3480156102f857600080fd5b50610284610307366004612365565b6109a6565b34801561031857600080fd5b50610284610327366004612365565b610cb4565b34801561033857600080fd5b506102be6103473660046123a0565b600260209081526000928352604080842090915290825290205481565b34801561037057600080fd5b506102be61037f3660046123cc565b610f50565b34801561039057600080fd5b506102be61039f3660046123a0565b600460209081526000928352604080842090915290825290205481565b3480156103c857600080fd5b506102be6103d7366004612365565b611310565b3480156103e857600080fd5b506102be6103f73660046123a0565b611361565b34801561040857600080fd5b5061041c610417366004612365565b6113ac565b604080516001600160a01b039098168852602088019690965294860193909352606085019190915215156080840152151560a083015260c082015260e001610192565b34801561046b57600080fd5b5061028461047a366004612365565b61144a565b34801561048b57600080fd5b5061028461049a366004612471565b611728565b3480156104ab57600080fd5b506102be60005481565b3480156104c157600080fd5b506101866104d0366004612365565b611a09565b6102846104e3366004612365565b611a87565b3480156104f457600080fd5b506102be6101f481565b34801561050a57600080fd5b5061051e61051936600461237e565b611bb4565b60405161019298979695949392919061252d565b610284610540366004612365565b611d08565b34801561055157600080fd5b5061056561056036600461237e565b612039565b60405161019299989796959493929190612586565b34801561058657600080fd5b506102be6105953660046123a0565b612138565b600082815260016020526040902060060154829062010000900460ff166105dc5760405162461bcd60e51b81526004016105d3906125e7565b60405180910390fd5b60008381526005602052604090205482106106095760405162461bcd60e51b81526004016105d39061261c565b600083815260056020526040812080548490811061062957610629612653565b6000918252602080832087845260019091526040909220600760089092029092019081015490925060ff16156106a15760405162461bcd60e51b815260206004820152601960248201527f43617046756e643a20416c72656164792065786563757465640000000000000060448201526064016105d3565b81600501544210156106f55760405162461bcd60e51b815260206004820152601c60248201527f43617046756e643a20566f74696e67207374696c6c206163746976650000000060448201526064016105d3565b600782018054600484015460038501541161010090810261ffff199092169190911760011791829055900460ff161561078757600160028084015460ff1690811115610743576107436124f5565b036107575760068201546004820155610787565b60028281015460ff1681811115610770576107706124f5565b036107875760068101805461ff0019166101001790555b83857f675c71fb6cbf880ec8fed9c345ef0bb3019cc44b99708edb402b85a7535d7d198460070160019054906101000a900460ff166040516107cd911515815260200190565b60405180910390a35050505050565b600080831161082d5760405162461bcd60e51b815260206004820152601860248201527f43617046756e643a20436170206d757374206265203e2030000000000000000060448201526064016105d3565b42821161087c5760405162461bcd60e51b815260206004820181905260248201527f43617046756e643a20446561646c696e65206d7573742062652066757475726560448201526064016105d3565b60008054908061088b8361267f565b909155506040805161012081018252828152336020808301828152838501898152600060608601818152608087018b815260a0880183815260c0890184815260e08a018581526001610100808d018281528f8952828c52978e90209c518d559851908c0180546001600160a01b0319166001600160a01b03909216919091179055955160028b0155925160038a01559051600489015551600588015551600690960180549251915161ffff1990931696151561ff001916969096179015159092029190911762ff00001916620100009115159190910217909255825187815291820186905292935083917f91b289a829e71d811b8c69e4a24ba2d40d115d8a236e9a724cb3bb2d43cf7223910160405180910390a392915050565b600081815260016020526040902060060154819062010000900460ff166109df5760405162461bcd60e51b81526004016105d3906125e7565b6000828152600160208190526040909120015482906001600160a01b03163314610a4b5760405162461bcd60e51b815260206004820152601c60248201527f43617046756e643a204f6e6c792063616d706169676e206f776e65720000000060448201526064016105d3565b60008381526001602052604090206006810154610100900460ff1615610a835760405162461bcd60e51b81526004016105d390612698565b806002015481600301541015610adb5760405162461bcd60e51b815260206004820152601d60248201527f43617046756e643a2046756e64696e6720676f616c206e6f74206d657400000060448201526064016105d3565b600681015460ff1615610b305760405162461bcd60e51b815260206004820152601a60248201527f43617046756e643a20416c72656164792077697468647261776e00000000000060448201526064016105d3565b806004015442101580610b475750610b4784612162565b610bb95760405162461bcd60e51b815260206004820152603a60248201527f43617046756e643a2043616e6e6f7420776974686472617720756e74696c206460448201527f6561646c696e65206f7220617070726f7665642062792044414f00000000000060648201526084016105d3565b60068101805460ff191660019081179091556003820154908201546040516000916001600160a01b03169083908381818185875af1925050503d8060008114610c1e576040519150601f19603f3d011682016040523d82523d6000602084013e610c23565b606091505b5050905080610c745760405162461bcd60e51b815260206004820152601a60248201527f43617046756e643a205769746864726177616c206661696c656400000000000060448201526064016105d3565b604051828152339087907ff440aec6b52895984d061d622e6edeba6210f7c3e059be920663140c084560d7906020015b60405180910390a3505050505050565b600081815260016020526040902060060154819062010000900460ff16610ced5760405162461bcd60e51b81526004016105d3906125e7565b6000828152600160209081526040808320600283528184203385529092529091205480610d5c5760405162461bcd60e51b815260206004820152601860248201527f43617046756e643a204e6f20636f6e747269627574696f6e000000000000000060448201526064016105d3565b6000610d68853361224d565b905060008111610dba5760405162461bcd60e51b815260206004820152601c60248201527f43617046756e643a204e6f20696e74657265737420616363727565640000000060448201526064016105d3565b8083600501541015610e1a5760405162461bcd60e51b815260206004820152602360248201527f43617046756e643a20496e74657265737420706f6f6c20696e73756666696369604482015262195b9d60ea1b60648201526084016105d3565b6000858152600360209081526040808320338085529083528184204290558884526004835281842090845290915281208054839290610e5a9084906126cf565b9250508190555080836005016000828254610e7591906126e2565b9091555050604051600090339083908381818185875af1925050503d8060008114610ebc576040519150601f19603f3d011682016040523d82523d6000602084013e610ec1565b606091505b5050905080610f1c5760405162461bcd60e51b815260206004820152602160248201527f43617046756e643a20496e746572657374207472616e73666572206661696c656044820152601960fa1b60648201526084016105d3565b604051828152339087907f5bd56c18bcf5c328fa6875f4ee4b28fe6f3188c3805a320276bc47aa87b4de0d90602001610ca4565b600086815260016020526040812060060154879062010000900460ff16610f895760405162461bcd60e51b81526004016105d3906125e7565b6000888152600160208190526040909120015488906001600160a01b03163314610ff55760405162461bcd60e51b815260206004820152601c60248201527f43617046756e643a204f6e6c792063616d706169676e206f776e65720000000060448201526064016105d3565b600089815260016020526040902060060154610100900460ff161561102c5760405162461bcd60e51b81526004016105d390612698565b866110795760405162461bcd60e51b815260206004820152601d60248201527f43617046756e643a204465736372697074696f6e20726571756972656400000060448201526064016105d3565b610e108510156110d55760405162461bcd60e51b815260206004820152602160248201527f43617046756e643a204d696e203120686f757220766f74696e672077696e646f6044820152607760f81b60648201526084016105d3565b60018660028111156110e9576110e96124f5565b0361115a57600089815260016020526040902060040154841161115a5760405162461bcd60e51b815260206004820152602360248201527f43617046756e643a204e657720646561646c696e65206d757374206265206c616044820152623a32b960e91b60648201526084016105d3565b60008981526005602090815260409182902080548351610120810185528181528451601f8d018590048502810185019095528b85529096509092909182810191908c908c90819084018382808284376000920191909152505050908252506020018860028111156111cd576111cd6124f5565b815260006020820181905260408201526060016111ea88426126cf565b8152602080820188905260006040830181905260609092018290528354600181810186559483529181902083516008909302019182558201519192909190820190611235908261278a565b5060408201518160020160006101000a81548160ff02191690836002811115611260576112606124f5565b0217905550606082015160038201556080820151600482015560a0820151600582015560c0820151600682015560e0820151600790910180546101009384015161ffff1990911692151561ff0019169290921791151590920217905582897f5f8e4c947bd14179128006d0e407f912d274ef5d7e9c0a833d31fb62687932718a8a8a6112ec8b426126cf565b6040516112fc949392919061284a565b60405180910390a350509695505050505050565b600081815260016020526040812060060154829062010000900460ff166113495760405162461bcd60e51b81526004016105d3906125e7565b60008381526005602052604090205491505b50919050565b600082815260016020526040812060060154839062010000900460ff1661139a5760405162461bcd60e51b81526004016105d3906125e7565b6113a4848461224d565b949350505050565b600081815260016020526040812060060154819081908190819081908190889062010000900460ff166113f15760405162461bcd60e51b81526004016105d3906125e7565b505050600095865250506001602081905260409094209384015460028501546003860154600487015460068801546005909801546001600160a01b03909416989297919650945060ff8082169450610100909104169190565b600081815260016020526040902060060154819062010000900460ff166114835760405162461bcd60e51b81526004016105d3906125e7565b60008281526001602052604081206006810154909190610100900460ff16806114c25750816004015442101580156114c2575081600201548260030154105b9050806115115760405162461bcd60e51b815260206004820181905260248201527f43617046756e643a204e6f7420656c696769626c6520666f7220726566756e6460448201526064016105d3565b6000848152600260209081526040808320338452909152902054806115785760405162461bcd60e51b815260206004820152601a60248201527f43617046756e643a204e6f7468696e6720746f20726566756e6400000000000060448201526064016105d3565b6000611584863361224d565b600087815260026020908152604080832033845290915281205590508181158015906115b4575081856005015410155b1561161157818560050160008282546115cd91906126e2565b909155506115dd905082826126cf565b600088815260046020908152604080832033845290915281208054929350849290919061160b9084906126cf565b90915550505b604051600090339083908381818185875af1925050503d8060008114611653576040519150601f19603f3d011682016040523d82523d6000602084013e611658565b606091505b50509050806116a95760405162461bcd60e51b815260206004820152601f60248201527f43617046756e643a20526566756e64207472616e73666572206661696c65640060448201526064016105d3565b604051848152339089907f7a482fdeb6bc9a1376f597068a214a7a39472bb2eff1b8cad21ba04f49ddca1b9060200160405180910390a3821561171e57604051838152339089907f5bd56c18bcf5c328fa6875f4ee4b28fe6f3188c3805a320276bc47aa87b4de0d9060200160405180910390a35b5050505050505050565b600083815260016020526040902060060154839062010000900460ff166117615760405162461bcd60e51b81526004016105d3906125e7565b6000848152600260209081526040808320338452909152902054806117d75760405162461bcd60e51b815260206004820152602660248201527f43617046756e643a204d757374206265206120636f6e7472696275746f7220746044820152656f20766f746560d01b60648201526084016105d3565b60008581526005602052604090205484106118045760405162461bcd60e51b81526004016105d39061261c565b6000858152600660209081526040808320878452825280832033845290915290205460ff161561186f5760405162461bcd60e51b815260206004820152601660248201527510d85c119d5b990e88105b1c9958591e481d9bdd195960521b60448201526064016105d3565b600085815260056020526040812080548690811061188f5761188f612653565b60009182526020909120600890910201600781015490915060ff16156119025760405162461bcd60e51b815260206004820152602260248201527f43617046756e643a2050726f706f73616c20616c726561647920657865637574604482015261195960f21b60648201526084016105d3565b806005015442106119555760405162461bcd60e51b815260206004820181905260248201527f43617046756e643a20566f74696e6720706572696f642068617320656e64656460448201526064016105d3565b600086815260066020908152604080832088845282528083203384529091529020805460ff1916600117905583156119a6578181600301600082825461199b91906126cf565b909155506119c09050565b818160040160008282546119ba91906126cf565b90915550505b604080518515158152602081018490523391879189917fd72a296265de05f7f425107ca376651b68831fa700c5ed272487924e44532dc5910160405180910390a4505050505050565b600081815260016020526040812060060154829062010000900460ff16611a425760405162461bcd60e51b81526004016105d3906125e7565b60008381526001602052604090206006810154610100900460ff16158015611a6d5750806004015442105b80156113a457508060020154816003015410949350505050565b600081815260016020526040902060060154819062010000900460ff16611ac05760405162461bcd60e51b81526004016105d3906125e7565b60003411611b1c5760405162461bcd60e51b815260206004820152602360248201527f43617046756e643a204d7573742073656e642045544820746f2066756e6420706044820152621bdbdb60ea1b60648201526084016105d3565b600082815260016020526040902060060154610100900460ff1615611b535760405162461bcd60e51b81526004016105d390612698565b60008281526001602052604081206005018054349290611b749084906126cf565b9091555050604051348152339083907f8b7a80387e733220429d282f3fa466f7f68be6bf2973ba7ed21be8f6ed8992eb9060200160405180910390a35050565b60606000806000806000806000600560008b8152602001908152602001600020805490508910611bf65760405162461bcd60e51b81526004016105d39061261c565b60008a815260056020526040812080548b908110611c1657611c16612653565b600091825260209091206008909102016002810154600382015460048301546005840154600685015460078601546001870180549798509660ff9687169680831692610100900416908890611c6a9061270b565b80601f0160208091040260200160405190810160405280929190818152602001828054611c969061270b565b8015611ce35780601f10611cb857610100808354040283529160200191611ce3565b820191906000526020600020905b815481529060010190602001808311611cc657829003601f168201915b5050505050975098509850985098509850985098509850509295985092959890939650565b600081815260016020526040902060060154819062010000900460ff16611d415760405162461bcd60e51b81526004016105d3906125e7565b60008281526001602052604090206006810154610100900460ff1615611d795760405162461bcd60e51b81526004016105d390612698565b80600401544210611dcc5760405162461bcd60e51b815260206004820152601c60248201527f43617046756e643a20446561646c696e6520686173207061737365640000000060448201526064016105d3565b8060020154816003015410611e235760405162461bcd60e51b815260206004820152601d60248201527f43617046756e643a20416c72656164792066756c6c792066756e64656400000060448201526064016105d3565b60003411611e6c5760405162461bcd60e51b8152602060048201526016602482015275086c2e08ceadcc874409aeae6e840e6cadcc8408aa8960531b60448201526064016105d3565b600081600301548260020154611e8291906126e2565b905034600082821115611e9f57829150611e9c82346126e2565b90505b81846003016000828254611eb391906126cf565b909155505060008681526002602090815260408083203384529091528120549003611ef557600086815260036020908152604080832033845290915290204290555b600086815260026020908152604080832033845290915281208054849290611f1e9084906126cf565b9091555050604051828152339087907f0a4a91237423e0a1766a761c7cb029311d8b95d6b1b81db1b949a70c98b4e08e9060200160405180910390a3801561203157604051600090339083908381818185875af1925050503d8060008114611fa2576040519150601f19603f3d011682016040523d82523d6000602084013e611fa7565b606091505b5050905080611ff85760405162461bcd60e51b815260206004820152601f60248201527f43617046756e643a20526566756e64207472616e73666572206661696c65640060448201526064016105d3565b604051828152339088907f7a482fdeb6bc9a1376f597068a214a7a39472bb2eff1b8cad21ba04f49ddca1b9060200160405180910390a3505b505050505050565b6005602052816000526040600020818154811061205557600080fd5b90600052602060002090600802016000915091505080600001549080600101805461207f9061270b565b80601f01602080910402602001604051908101604052809291908181526020018280546120ab9061270b565b80156120f85780601f106120cd576101008083540402835291602001916120f8565b820191906000526020600020905b8154815290600101906020018083116120db57829003601f168201915b5050505060028301546003840154600485015460058601546006870154600790970154959660ff9485169693955091939092818116916101009091041689565b60008281526002602090815260408083206001600160a01b03851684529091529020545b92915050565b6000818152600560205260408120815b815481101561224357600082828154811061218f5761218f612653565b60009182526020909120600260089092020181015460ff16908111156121b7576121b76124f5565b1480156121e957508181815481106121d1576121d1612653565b600091825260209091206007600890920201015460ff165b8015612222575081818154811061220257612202612653565b906000526020600020906008020160070160019054906101000a900460ff165b15612231575060019392505050565b8061223b8161267f565b915050612172565b5060009392505050565b60008281526002602090815260408083206001600160a01b038516845290915281205480820361228157600091505061215c565b60008481526003602090815260408083206001600160a01b0387168452909152812054908190036122b75760009250505061215c565b60006122c382426126e2565b9050806000036122d9576000935050505061215c565b6122e96301e13380612710612891565b816122f66101f486612891565b6123009190612891565b61230a91906128a8565b9695505050505050565b80356001600160a01b038116811461232b57600080fd5b919050565b60008060006060848603121561234557600080fd5b833592506020840135915061235c60408501612314565b90509250925092565b60006020828403121561237757600080fd5b5035919050565b6000806040838503121561239157600080fd5b50508035926020909101359150565b600080604083850312156123b357600080fd5b823591506123c360208401612314565b90509250929050565b60008060008060008060a087890312156123e557600080fd5b86359550602087013567ffffffffffffffff8082111561240457600080fd5b818901915089601f83011261241857600080fd5b81358181111561242757600080fd5b8a602082850101111561243957600080fd5b60208301975080965050505060408701356003811061245757600080fd5b959894975092956060810135946080909101359350915050565b60008060006060848603121561248657600080fd5b8335925060208401359150604084013580151581146124a457600080fd5b809150509250925092565b6000815180845260005b818110156124d5576020818501810151868301820152016124b9565b506000602082860101526020601f19601f83011685010191505092915050565b634e487b7160e01b600052602160045260246000fd5b6003811061252957634e487b7160e01b600052602160045260246000fd5b9052565b60006101008083526125418184018c6124af565b915050612551602083018a61250b565b8760408301528660608301528560808301528460a083015283151560c083015282151560e08301529998505050505050505050565b60006101208b83528060208401526125a08184018c6124af565b9150506125b0604083018a61250b565b8760608301528660808301528560a08301528460c083015283151560e08301528215156101008301529a9950505050505050505050565b6020808252818101527f43617046756e643a2043616d706169676e20646f6573206e6f74206578697374604082015260600190565b6020808252601b908201527f43617046756e643a2050726f706f73616c206e6f7420666f756e640000000000604082015260600190565b634e487b7160e01b600052603260045260246000fd5b634e487b7160e01b600052601160045260246000fd5b60006001820161269157612691612669565b5060010190565b6020808252601e908201527f43617046756e643a2043616d706169676e2069732063616e63656c6c65640000604082015260600190565b8082018082111561215c5761215c612669565b8181038181111561215c5761215c612669565b634e487b7160e01b600052604160045260246000fd5b600181811c9082168061271f57607f821691505b60208210810361135b57634e487b7160e01b600052602260045260246000fd5b601f82111561278557600081815260208120601f850160051c810160208610156127665750805b601f850160051c820191505b8181101561203157828155600101612772565b505050565b815167ffffffffffffffff8111156127a4576127a46126f5565b6127b8816127b2845461270b565b8461273f565b602080601f8311600181146127ed57600084156127d55750858301515b600019600386901b1c1916600185901b178555612031565b600085815260208120601f198616915b8281101561281c578886015182559484019460019091019084016127fd565b508582101561283a5787850151600019600388901b60f8161c191681555b5050505050600190811b01905550565b606081528360608201528385608083013760006080858301015260006080601f19601f8701168301019050612882602083018561250b565b82604083015295945050505050565b808202811582820484141761215c5761215c612669565b6000826128c557634e487b7160e01b600052601260045260246000fd5b50049056fea26469706673582212204a070269f06ec0c7648197ce23b7fe0f13948f21fc56f850c38047d72356c7f364736f6c63430008130033",
  "linkReferences": {},
  "deployedLinkReferences": {}
}